:020000040800F2
:10000000C80D0020A5010008531F0008911B00081F
:10001000511F00082F030008B1270008000000004E
:10002000000000000000000000000000992200080D
:100030003103000800000000751F00089B22000823
:10004000BF010008BF010008BF0100088D220008A1
:10005000BF010008BF010008BF010008BF01000880
:10006000BF0100084D030008BF010008BF010008E0
:10007000BF010008BF010008BF010008BF01000860
:10008000BF010008BF010008BF010008BF01000850
:10009000BF010008BF010008BF010008BF01000840
:1000A000BF010008BF010008BF010008BF01000830
:1000B000BF010008BF010008BF010008951B000830
:1000C000BF010008BF010008BF010008BF01000810
:1000D000BF010008BF010008BF010008BF01000800
:1000E00035030008BF010008BF010008BF01000878
:1000F000BF010008BF010008BF010008BF010008E0
:10010000BF010008BF010008BF010008BF010008CF
:10011000BF010008BF010008BF010008BF010008BF
:10012000BF010008BF010008BF010008BF010008AF
:10013000BF010008BF010008BF010008BF0100089F
:10014000BF010008A11B0008BF010008BF01000893
:10015000BF010008BF010008BF010008BF0100087F
:10016000BF010008BF010008BF010008BF0100086F
:10017000BF010008BF010008BF0100080000000027
:10018000BF010008BF010008DFF814D000F0BCF880
:1001900000F04EF8004800477928000800F092F877
:1001A000C80D00200648804706480047FEE7FEE7E6
:1001B000FEE7FEE7FEE7FEE7FEE7FEE7FEE7FEE717
:1001C00045230008890100082DE9F05F054600205D
:1001D00092469B4688460646814640241BE02846B8
:1001E00041464746224600F059F853465A46C01A3F
:1001F000914110D311461846224600F040F82D1ABE
:1002000067EB01084F4622460120002100F037F835
:1002100017EB00094E41201EA4F10104DFDC484623
:1002200031462A46434600F000B830BCBDE8C09FC6
:1002300070B5054C054D03E0206820448047241D1F
:10024000AC42F9D170BD0000782900087C29000873
:100250002DE9F041074615460E46102002F020FB1E
:1002600004000AD06760C4E9026500F027F801685D
:10027000216004600020BDE8F0810120FBE7202A16
:1002800004DB203A00FA02F1002070479140C2F1ED
:10029000200320FA03F3194390407047202A04DB1F
:1002A000203A21FA02F00021704721FA02F3D040EF
:1002B000C2F1200291400843194670470048704738
:1002C000080000202DE9F0410646FFF7F7FF8046C1
:1002D000454613E016B1E068B0420ED120682860B0
:1002E000D4E90101D8F800708847204602F09CFA52
:1002F000D8F80000B842EBD100E025462C68002C6D
:10030000E8D1BDE8F0810000064C074D06E0E0684A
:1003100040F0010394E8070098471034AC42F6D34C
:10032000FFF736FF58290008782900087047FEE7D4
:100330007047000010B54FF4806000F015F8BDE87C
:100340001040014802F036BA9800002010B508208D
:1003500000F00AF8BDE81040014802F02BBA000096
:100360009800002070470000044910B50A68024256
:1003700002D00860FFF7F6FF10BD00001404014032
:100380002DE9F84FDFF898B100234FF0010C4FF042
:10039000030A4FF00F090BF1040EB9E00CFA03F455
:1003A000224070D04D68022D01D0122D0ED1DD08F3
:1003B00000EB8508D8F820505E07F70E09FA07F61B
:1003C000B5430E69BE402E43C8F8206007685E0042
:1003D00091F804800AFA06F508F00308AF4308FA1A
:1003E00006F848EA0708C0F800804F68012F05D0DA
:1003F000022F03D0112F01D0122F13D1D0F8088073
:10040000CF6828EA0508B74047EA08078760D0F8B0
:1004100004800F7928EA0408C7F300179F4047EAD1
:1004200008074760D1F804806FEA0807BF0706D1C4
:10043000C76AA743C8F3C0049C403C43C462C46875
:10044000AC438D68B5402543C5604C68E4005ED57B
:10045000344C256E45F001052566246E23F0030516
:1004600004F001040094304C2E19B4689D072F0F3E
:1004700009FA07F5AC43B0F1904F05D02B4DA842D7
:1004800004D101251CE042E0002519E0284DA842D6
:1004900001D1022514E0274DA84201D103250FE028
:1004A000254DA84201D104250AE0244DA84201D1DE
:1004B000052505E0224DA84201D1062500E00725CB
:1004C000BD402543B560DBF800405D464E6894436F
:1004D000F60300D514432C60DEF8004075464E68E4
:1004E0009443B60300D514432C600D4D08352C6899
:1004F0004E689443F60200D514432C60084D0C3529
:100500002C684E689443B60200D514432C605B1CE3
:100510000A6832FA03F57FF441AF00F013B8000027
:1005200000040140001002400000014000040048A7
:1005300000080048000C0048001000480014004863
:100540000018004818BCBDE8E08F0AB1816170470F
:100550008162704701480068704700000400002075
:1005600090F84120202A24D190F84020012A20D060
:10057000012280F84020242280F84120026813687C
:1005800023F0010313600268136823F4805313609F
:10059000026813680B43136001680A6842F00102A5
:1005A0000A60202180F84110002180F840100846A0
:1005B00070470220704790F84120202A22D190F8FD
:1005C0004020012A1ED0012280F84020242280F8F9
:1005D00041200268136823F0010313600268136866
:1005E00023F4706343EA0121116001680A6842F054
:1005F00001020A60202180F84110002180F840109B
:100600000846704702207047026891691268436B80
:10061000002B00D01847704770B5040004D094F840
:100620004100002528B109E04FF40070606401200A
:1006300070BD84F84050204600F04CF8242084F827
:1006400041002068016821F00101016060682168B3
:1006500020F0706008612068816821F400418160A9
:10066000E0680128A06807D040F404402168886051
:10067000E068022803D006E040F40040F6E7216875
:100680004FF40060486020684168114A114341609E
:100690002068C16821F40041C160D4E90401084325
:1006A000A16940EA01202168C860D4E90701084334
:1006B000216808602068016841F0010101606564FB
:1006C000202084F84100256384F84250002070BD4A
:1006D0000080000200B50068124987B088421FD12F
:1006E0004FF4C0700090122001900120029003206E
:1006F00003900420049069460B48FFF741FE0B4825
:10070000816D41F400118165806D002200F40010BC
:10071000059011461F2000F09FF91F2000F090F96E
:1007200007B000BD00540040000400480010024023
:1007300070B5040011D021684CF6CC4008602168E7
:1007400045F255500860D4E9000141602168A06875
:100750008860FFF7FFFE054609E0012070BD00BF7D
:10076000FFF7F8FE401B302801D9032070BD206838
:10077000C0680028F4D120680269E1688A4201D08B
:10078000016102E04AF6AA210160002070BD00006C
:1007900002480168491C0160704700000400002005
:1007A00010B5032000F078F9002000F005F800F003
:1007B00007F9002010BD000010B5044607484FF4AB
:1007C0007A710068B0FBF1F001F071F90022214666
:1007D000501E00F041F9002010BD00000000002074
:1007E00070477047704770477047704710B50446B0
:1007F00000680168C943C90708D18168C943C907AE
:1008000004D1012141602046FFF7ECFF2068016818
:10081000C943890708D48168C943890704D40221E0
:1008200041602046FFF7DCFF20680168C9434907A3
:1008300008D48168C943490704D404214160204693
:1008400000F0BCF820680168C943090708D4816832
:10085000C943090704D4082141602046FFF7C3FFBC
:1008600020680168C943C90608D48168C943C9061C
:1008700004D4102141602046FFF7B3FF20680168CF
:10088000C943890608D48168C943890604D4202154
:1008900041602046FFF7A9FF20680168C943490667
:1008A00008D48168C943490604D4402141602046E8
:1008B000FFF79AFF10BD00002DE9F041040005D0BC
:1008C00094F836004FF6FF7518B108E00120BDE836
:1008D000F081002084F83500204600F03FF8022027
:1008E00084F836002668F1686268012A01D121F097
:1008F0001E016369AB4202D04EF2C000814315482D
:10090000A768014042EA0700D4E9087C47EA0C07DF
:100910003843A76A38430843012A03D1D4E90312B4
:1009200011430843AB4205D0A1690B43E169014380
:1009300043EA0100F06008492068884203D1D4E905
:100940000B12114300E0E16A0162012084F83600D5
:100950000020BCE7FEF119FF007C004008B50068EC
:100960000B49884212D10B48816D41F000418165ED
:10097000806D002200F0004000901146412000F000
:100980006BF8BDE80840412000F05AB808BD0000EF
:10099000007C004000100240022180F836100168FF
:1009A0000A6922F001020A610168CA6822F4002281
:1009B000CA60012180F8361000207047704700009F
:1009C0001E4808B5016E41F001010166016E01F09B
:1009D00001010091816D41F080518165806D00F0D1
:1009E00080500090032000F057F8002211466FF06D
:1009F0000B0000F031F8002211466FF00A0000F001
:100A00002BF8002211466FF0090000F025F80022B3
:100A10001146501F00F020F800221146101F00F070
:100A20001BF800221146901E00F016F80022BDE8C7
:100A300008401146501E00F00FB8000000100240A0
:100A400000F01F02012191404009800000F1E020E8
:100A5000C0F8001170470000F0B40E4B1B680C4644
:100A6000C3F30223C3F10705042D00D90425191D82
:100A7000072901D2002300E0DB1E012606FA05F15A
:100A8000491E214099409E40761E16403143F0BCDD
:100A900001F060BA0CED00E0064900F007020868BA
:100AA0004FF6FF03184040EA0220034A1043086053
:100AB000704700000CED00E00000FA051549B0F5A4
:100AC000007F0868C0F3412009D0022805D00868DB
:100AD00020F4C06040F48060086000207047012866
:100AE000FBD0086820F4C06040F4007008600A4839
:100AF0000A4A0068B0FBF2F03222504300E0401E88
:100B000010B14A695205FAD448694005E5D5032079
:100B100070470000007000400000002040420F00BD
:100B20000248006800F4C060704700000070004098
:100B30002DE9F84F044600270088E54D3E460105A3
:100B400004F1200B1DD5606E78B1B0F5800F11D087
:100B5000B0F5000F04D0B0F5400F22D001270FE010
:100B6000E86840F48030E8601BE00021201D01F0BF
:100B700003FA03E00021584601F094FA070010D070
:100B80003E462088C00426D5A06EC0B1B0F1807F5B
:100B90001AD0B0F1007F0DD0B0F1407F19D00127FD
:100BA00018E0D5F88800616E20F440000843C5F8CD
:100BB0008800E6E7E86840F48030E86009E000215A
:100BC000201D01F0D9F903E00021584601F06AFA2E
:100BD0000746F7B13E46206880033AD5A86D4FF02E
:100BE0000008C00009D4A86D40F08050A865A86D29
:100BF0004FF0010800F080500090DFF8D8A2DAF83A
:100C0000001041F48071CAF80010FFF7A3FC814680
:100C100010E0D5F88800A16E20F040700843C5F8B8
:100C20008800D8E7FFF796FCA0EB0900022801D95D
:100C3000032705E0DAF80000C005F3D5002F7CD0CB
:100C40004FEA0706B8F1000F03D0A86D20F08050DE
:100C5000A8652078C00707D0D5F88800A16B20F0E0
:100C600003000843C5F888002078800707D5D5F829
:100C70008800E16B20F00C000843C5F8880020785C
:100C8000400707D5D5F88800216C20F030000843D4
:100C9000C5F888002078000707D5D5F88800616C72
:100CA00020F0C0000843C5F888002078C00607D5AA
:100CB000D5F88800A16C20F440700843C5F888007E
:100CC0002078800607D5D5F88800E16C20F44060D4
:100CD0000843C5F888002088800507D5D5F8880026
:100CE000E16D20F440200843C5F8880020884005C5
:100CF00007D5D5F88800216E20F440100843C5F8C8
:100D000088002078400607D5D5F88800216D20F4AA
:100D100040500843C5F888002078000607D5D5F86C
:100D20008800616D20F440400843C5F888002088A1
:100D3000C00509D5D5F8880000E01CE0A16D20F4BD
:100D400040300843C5F8880020884FF000678004D1
:100D50004FF080684FD5D5F88800E16E20F04060F4
:100D60000843C5F88800E06EB8423CD1E86840F41A
:100D70008010E8603FE0D5F8900010F4407015D086
:100D8000D4F88410814211D0D5F89000D5F8901095
:100D900020F4407041F48031C5F89010D5F89010DF
:100DA00021F48031C5F89010C5F89000C00710D02C
:100DB000FFF7D0FB074641F2883906E0FFF7CAFB90
:100DC000C11B494501D903263CE7D5F890008007AF
:100DD000F4D5D5F89000D4F8841020F4407008437E
:100DE000C5F890002EE7404505D10121201D01F0F6
:100DF000C3F800B106462068000317D5D5F888006F
:100E0000216F20F040600843C5F88800206FB84289
:100E100004D1E86840F48010E86007E0404505D15F
:100E20000121201D01F0A8F800B10646206840030A
:100E300017D5D5F88800616F20F040600843C5F8E9
:100E40008800606FB84204D1E86840F48010E86020
:100E500007E0404505D10121201D01F08DF800B1CA
:100E60000646208840041AD5D5F88800A16F20F0E6
:100E700040500843C5F88800A06FB0F1805F03D0F0
:100E8000B0F1005F05D00AE00221201D01F074F8E6
:100E900003E00221584601F005F900B1064620881A
:100EA000000407D5D5F88800E16F20F080400843A2
:100EB000C5F888002068C00307D555F8880FD4F816
:100EC000801020F0004008432860304600F004B84D
:100ED000001002400070004018BCBDE8E08F000028
:100EE0002DE9F0470F46050058D03E4E306800F01F
:100EF0000700B84209D2306820F00700384330605C
:100F0000306800F00700B84248D12878364CC00756
:100F10002CD06868032811D0022812D0216898B11B
:100F2000490500293ADAA16821F003010143A160D3
:100F3000FFF710FB804641F2883910E021688901F3
:100F4000EFE721688903ECE78907EAE7FFF702FB8F
:100F5000A0EB0801494502D90320BDE8F087A0684D
:100F6000696800F00C00B0EB810FEFD128788007A2
:100F700005D5A068A96820F0F0000843A06030689B
:100F800000F00700B8420BD9306820F00700384362
:100F90003060306800F00700B84201D00120DCE783
:100FA0002878400705D5A068E96820F4E060084388
:100FB000A0602878000706D5A068296920F4605051
:100FC00040EAC100A06000F03BF8A168074AC1F305
:100FD0000311515CC840064908600020FFF7ECFB94
:100FE0000020BAE70020024000100240102900084B
:100FF0000000002001480068704700000000002049
:101000000448054900688968044AC1F30221515C1B
:10101000C84070470000002000100240502900081E
:101020000448054900688968044AC1F3C221515C3B
:10103000C8407047000000200010024050290008FE
:1010400030B52D49002318468A682C4C12F00C0F3D
:101050004FEA640514D08A68C2F38102032A04D1DE
:10106000CA6802F00302012A0AD08A68C2F3810228
:10107000012A19D08A68C2F38102022A16D016E02A
:101080000A68120704D4D1F89420C2F3032202E0C4
:101090000A68C2F303121A4B53F822308A6812F01E
:1010A0000C0F04D1184602E0204600E028468A686A
:1010B000C2F38102032A1DD1C868CA6800F0030088
:1010C000C2F30212521C022804D0032805D0B3FB3D
:1010D000F2F004E0B4FBF2F001E0B5FBF2F0CA6814
:1010E000C968C2F306225043C1F34161491C49005B
:1010F000B0FBF1F030BD0000001002400024F4000D
:10110000202900082DE9F84304007DD02078FF4D08
:10111000C0065DD5A86810F00C0F0AD0A0690028A1
:10112000286873D040F001002860FFF713FA0646E4
:1011300055E02868800702D5A0690028E5D0216A1B
:101140002868000703D5286800F0F00004E0D5F80F
:101150009400F02202EA1010814216D9084601F0EC
:1011600025F8002850D1286840F008002860286839
:10117000216A20F0F000084328606868E16920F4E3
:101180007F4040EA0120686015E0286840F00800D0
:1011900028602868216A20F0F00008432860686809
:1011A000E16920F47F4040EA01206860206A00F095
:1011B000FDFF0028D6D1FFF743FFA968D44AC1F349
:1011C0000311515CC840D34908600020FFF7F4FACE
:1011D0002CE000BFFFF7BEF9801B02287ED82868EC
:1011E0008007F7D5286840F0080028602868216A41
:1011F00020F0F000084328606868E16920F47F402F
:1012000040EA0120686011E0B2E0FFE720F0010051
:101210002860FFF79FF9064605E000BFFFF79AF93F
:10122000801B0228DAD828688007F7D42078C00706
:1012300048D0A868C0F3810002281DD0A868C0F378
:101240008100032803D1E868C043800714D0606898
:10125000B0F5803F17D0B0F5A02F286817D020F444
:1012600080302860286820F4802028606068E0B121
:10127000FFF770F9064614E02868800322D56068FD
:10128000002875D01EE0286840F48030EDE740F477
:1012900080202860F7E700BFFFF75CF9801B642817
:1012A0009CD828688003F7D50CE0FFF753F9064671
:1012B00005E000BFFFF74EF9801B64288ED8286830
:1012C0008003F7D42078800742D5A868C0F3810056
:1012D000012816D0A868C0F3810000E0A9E0032827
:1012E00004D1E86800F0030002280AD0E068002872
:1012F00028681DD040F480702860FFF72BF906465F
:101300000BE0286840050BD5E0680028B9D007E05D
:10131000FFF720F9801B022884D828684005F7D5FC
:101320006868217C20F0F85040EA016068600FE0B6
:1013300020F480702860FFF70DF9064605E000BF35
:10134000FFF708F9801B022873D828684005F7D4F6
:101350002078000729D560690028D5F8940013D0BB
:1013600040F00100C5F89400FFF7F4F8064606E0E7
:10137000FBE000BFFFF7EEF8801B022859D8D5F834
:1013800094008007F6D510E020F00100C5F8940025
:10139000FFF7E0F8064604E0FFF7DCF8801B0228C0
:1013A00047D8D5F894008007F6D42078400763D555
:1013B000A86D0026C00008D4A86D40F08050A86534
:1013C000A86D012600F08050009053480168C905BF
:1013D00011D40168804641F480710160FFF7BAF8CA
:1013E000074604E0FFF7B6F8C01B022821D8D8F85A
:1013F0000000C005F6D5A068012815D00528D5F84D
:10140000900017D020F00100C5F89000D5F89000AA
:1014100020F00400C5F89000A06841F28838C8B1F7
:10142000FFF798F8074610E0D5F8900040F001006B
:10143000F0E777E040F00400C5F89000F4E700BF63
:10144000FFF788F8C11B41456CD8D5F8900080079C
:10145000F6D50CE0FFF77EF8074604E0FFF77AF8D0
:10146000C11B414579D8D5F890008007F6D41EB14C
:10147000A86D20F08050A865A06AE0B3A968C1F308
:101480008101032972D00228286820F0807028602A
:1014900011D02868000106D42868800003D4E868C9
:1014A00020F00300E860E8681C490840E860FFF7A6
:1014B00051F8044654E0FFF74DF8064605E000BF3A
:1014C000FFF748F8801B022847D828688001F7D426
:1014D000206BE16A000110380843616BA26B0902BE
:1014E000120941EA42410843A18F0D4A490802EB23
:1014F0004151084300E036E094F8401049081201D9
:1015000002EB41610843E86028680CE000100240EB
:10151000102900080000002000700040FFFFEEFED0
:101520000000E0FF19E040F080702860E86840F0BB
:101530008070E860FFF70EF8044604E0FFF70AF851
:10154000001B022809D828688001F7D50BE000BFEE
:10155000FFF700F8001B022802D90320BDE8F8833A
:1015600028688001F4D40020F8E7FFE70120F5E7C0
:101570002DE9F74F044690F820008B4601281CD037
:101580004FF0010884F82080022084F821002168AF
:10159000CA204862216853204862206880684FF062
:1015A000000540054FF0FF064FF0030A4FF47A792B
:1015B0000FD5FEF7CFFF074607E0022000F058B82E
:1015C000FEF7C8FFC01B484519D82068C06840070F
:1015D000F6D42068816821F4806181602068C16848
:1015E00001F0800161F49061C160FEF7B3FF07462E
:1015F0000DE000BFFEF7AEFFC01B484507D92068CD
:10160000466284F821A084F820500320D6E72068A1
:10161000C0684007EED52168C1F814B02068816821
:1016200021F00701816020688168029A114381607E
:101630000E48016841F4801101600C4808300168CF
:1016400041F4801101602068816841F4804181602B
:101650002068816841F4806181602068466284F876
:10166000218084F820500020A8E7000000040140F9
:101670001EBCBDE8E08F704710B50B4904464FF41F
:10168000801008602068C168490508D5C16801F06C
:10169000800161F49061C1602046FFF7ECFF0120FA
:1016A00084F8210010BD00001404014070B504004E
:1016B00003D094F8210010B107E0012070BD002094
:1016C00084F82000204600F04DF8022084F8210024
:1016D0002168CA204862216853204862204600F0F1
:1016E000B7FDFF25042618BB206881681C4A1140FD
:1016F0008160216888686268A369104322691A437F
:10170000104388602168E0680861206801692289C7
:1017100041EA024101612068C16821F08001C16095
:1017200020688068800608D4204600F01DF920B1AA
:101730002068456284F82160BFE72068C16C21F011
:101740000301C1646169E06908432168CA6C104300
:10175000C86420684562012084F82100002070BD23
:10176000BFFF8FFF10B50068094988420FD10948B3
:1017700050F8901F41F400410160002211460320FF
:10178000FFF76AF9BDE810400320FFF759B910BD13
:1017900000280040001002402DE9F047044690F870
:1017A00020000B46012826D04FF0010984F8209034
:1017B000022084F82100587802B300F035FD9878B3
:1017C00000F032FD9878D97840EA014558781978C8
:1017D000000240EA413005432168CA20486221687E
:1017E00053204862204600F033FD0026FF274FF0CB
:1017F000040858BB19E00220BDE8F087C10603D5F4
:1018000000F0EF000A305870D87800F016FD02049E
:10181000587800F012FD42EA0022987800F00DFDA1
:101820000243187842EA4035D6E710480540206860
:1018300045602068C16821F08001C160206880682F
:1018400080060BD4204600F08FF838B1206847623C
:1018500084F8218084F820600120CDE72068476269
:1018600084F8219084F820600020C5E73FFFFF0046
:101870002DE9F047044690F820000D46012812D0CB
:101880004FF0010A84F820A0022084F8210020688B
:10189000002680684FEA406042B100281ADA2878B2
:1018A00000F0C2FC17E00220BDE8F087002800DB52
:1018B000EE70287800F0C1FC0204687800F0BDFCEE
:1018C00042EA0022A87800F0B8FC0243E87842EA35
:1018D00000470AE0EE70A878297840EA0147687866
:1018E000E978000240EA014007432168CA204862C3
:1018F000216853204862204600F0AAFC4FF0FF0800
:101900004FF00409E0B917480740206807602068D5
:10191000816821F480218160D5E9030108432168B1
:101920008A68104388602068C16821F08001C16026
:101930002068806880060CD4204600F015F840B17D
:101940002168C1F8248084F8219084F82060012067
:10195000AAE72168C1F8248084F821A084F82060D7
:101960000020A1E77F7F7F0070B504460068C16852
:1019700021F0A001C160FEF7EDFD05464FF47A7637
:1019800007E000BFFEF7E6FD401BB04201D903208F
:1019900070BD2068C0688006F4D5002070BD2DE9B8
:1019A000F041040005D00025A56294F85D0018B14F
:1019B00007E00120BDE8F08184F85C50204600F08B
:1019C00045F8022384F85D302068016821F0400169
:1019D0000160E0684FF4E066B04201D9002101E007
:1019E0004FF48051B0F5706F02D0B04200D0A562C4
:1019F000276B012227B9B04201D9236300E022639B
:101A0000D4E901031843D4E9043633431843238B44
:101A100003F400731843E3691843236A1843A36A65
:101A2000184323681860636B606AA669184304272B
:101A3000E36807EA164633431843084321684860C1
:101A4000256684F85D200020B4E7000000B500683A
:101A50000E4987B0884217D10D48016E41F480517C
:101A60000166006E694600F480500590E020009009
:101A70000220019000200290032003900520049092
:101A80004FF09040FEF77CFC07B000BD00300140F5
:101A9000001002404FF0E0210428086903D020F034
:101AA00004000861704740F00400FAE7704710B581
:101AB000401EB0F1807F01D3012010BD4FF0E02423
:101AC00060610F21601700F045FA0020A061072037
:101AD0002061002010BD10B5FFF7E8FF10BD10B564
:101AE000040003D094F8710010B107E0012010BD8C
:101AF000002084F87000204600F026F8242084F8A6
:101B000071002068016821F001010160204600F0A9
:101B1000CDFC0128EBD0606A10B1204600F034FC07
:101B20002068416821F4904141602068816821F07B
:101B30002A0181602068016841F0010101602046AE
:101B4000BDE8104000F084BC00B500680E4987B0C5
:101B5000884217D10D48816D41F400318165806D57
:101B6000694600F4003005900C200090022001909E
:101B70000020029003200390072004904FF0904033
:101B8000FEF7FEFB07B000BD00440040001002401D
:101B9000FEE700000148FEF737BD000014000020FA
:101BA00010B50648FEF722FE0448FEF7F5FE04498C
:101BB000C8688968BDE81040084700006000002040
:101BC000980000202DE9F041414886B0C16C41F0F9
:101BD0000401C164C16C01F004010591C16C41F0C4
:101BE0008001C164C16C01F080010591C16C41F0BC
:101BF0000101C164C16C01F001010591C16C41F0AA
:101C00000201C164C16C01F002010591C16C41F097
:101C10000801C164C06C4FF0904800F008000590C6
:101C2000002201214046FEF790FC4FF6FF7003258D
:101C3000CDE900050024694602942648FEF7A0FB82
:101C40000095CDE9015469462348FEF799FB012030
:101C50000090CDE90104694640460394FEF790FBED
:101C60004FF61230CDE90005694602944046FEF772
:101C700087FB4FF67760CDE90005184F694602945F
:101C80003846FEF77DFB164E4FF48060CDE9000626
:101C9000694602944046FEF773FB0420CDE9000537
:101CA000694602940F48FEF76BFB0820CDE9000659
:101CB000694602943846FEF763FB0022114628204D
:101CC000FEF7CAFE2820FEF7BBFE06B0BDE8F08195
:101CD0000010024000080048001C004800040048B2
:101CE00000001110000C0048164810B5144901609E
:101CF0001549416000210122C0E9021201614161E0
:101D00008161C1610162FEF787FC18B142210FA019
:101D100000F04FFD00210B48FEF722FC18B14921CD
:101D20000AA000F046FD00210648FEF744FC00280A
:101D300005D0BDE81040502104A000F03ABD10BD10
:101D40000054004014000020BC7D70102E2E5C5307
:101D500072635C6932632E63707000000B4810B5CB
:101D6000094901600621416040F6FF71C160816050
:101D7000FEF7DEFC002805D0BDE810403B2104A0A2
:101D800000F017BD10BD000000300040B801002079
:101D90002E2E5C5372635C697764672E63707000EB
:101DA0000D4810B50B49016000214160816001625E
:101DB000416281624FF6FF72C16242610163FEF7C8
:101DC0007BFD002805D0BDE81040402103A000F0B5
:101DD000F0BC10BD007C0040600000202E2E5C5343
:101DE00072635C6C7074696D2E637070000000002B
:101DF00010B5244886B022490024C0E900147F2190
:101E00008160FF21C0E9031444618461C461FFF76C
:101E10004DFC18B143211CA000F0CBFC8DF8004014
:101E20008DF801408DF8024003940122694615485F
:101E30000494FFF71DFD18B1522113A000F0B9FC66
:101E400001208DF814008DF815008DF8160002465B
:101E50008DF8174005A90B48FFF79EFC18B15F21CC
:101E600009A000F0A6FC002211460648FFF780FBFF
:101E7000002803D0692104A000F09BFC06B010BD2F
:101E800000280040B80000202E2E5C5372635C7264
:101E900074632E6370700000134810B5114901601F
:101EA0004FF48271416000214FF44072C0E9021288
:101EB0004FF400720161C0E90512C161016207229D
:101EC0004162C0E90A12016308214163FFF767FD1F
:101ED000002805D0BDE81040472104A000F069BCEF
:101EE00010BD000000300140DC0000202E2E5C53AD
:101EF00072635C7370692E63707000000E4810B5D9
:101F00000C4901604FF4E1314160002181600C22F5
:101F1000C160C0E904128161C16101624162FFF7E1
:101F2000DEFD002805D0BDE81040442103A000F0EC
:101F300040BC10BD00440040400100202E2E5C53E8
:101F400072635C75736172742E63707000000000C0
:101F5000FEE770470907090E002806DA00F00F00B7
:101F600000F1E02080F8141D704700F1E02080F8B7
:101F700000147047704700002DE9F041444C0546BD
:101F80008846E0680026810728680DD0E16801F0E6
:101F90000301814216D1A8B1E0686968C0F302105C
:101FA000401C88420ED120E0012804D0022805D030
:101FB000032807D108E02168890701E02168490565
:101FC000002907DB01265FE02168890302D421682C
:101FD0004903F5E7E1686A686FF00F0321F07301C8
:101FE00003EB021211430143E160206820F080609E
:101FF0002060FEF7AFFA074605E000BFFEF7AAFA39
:10200000C01B022837D820680001F7D4B8F1000FB0
:1020100018D0B8F1010F1ED0287D4FF07E41400846
:1020200001EB4060A96840EA01202169194A11408A
:1020300008432061206840F080602060FEF78AFA43
:1020400007461AE0A868E9680002090940EA414029
:102050002169114AEBE7288A1049400801EB4050FA
:10206000A96840EA012021690D4AE0E7FEF772FA0B
:10207000C01B022801D9032606E020680001F5D51F
:102080002069A969084320613046BDE8F08100005D
:1020900000100240FF80FFF9FF80FDFF0000E0FF1D
:1020A000FF809FFF2DE9F0413D4C06468846E068E1
:1020B0000025810730680DD0E16801F003018142FD
:1020C00016D1A8B1E0687168C0F30210401C8842C4
:1020D0000ED120E0012804D0022805D0032807D122
:1020E00008E02168890701E021684905002907DB2C
:1020F000012551E02168890302D421684903F5E7ED
:10210000E16872686FF00F0321F0730103EB0212B4
:1021100011430143E160206820F080502060FEF709
:1021200019FA074605E000BFFEF714FAC01B0228A3
:1021300029D820688000F7D4B8F1000F15D0307C82
:102140004FF07E41400801EB4060B16840EA012059
:102150006169144A114008436061206840F0805072
:102160002060FEF7F7F907460FE0B068F16800025B
:10217000090940EA414061690B4AEBE7FEF7EAF9D9
:10218000C01B022801D9032506E020688000F5D590
:1021900060697169084360612846BDE8F08100000C
:1021A00000100240FF80FFF9FF80FDFFF8B51C4DD5
:1021B00006460024A86DC00002D5FEF7B1FC0DE074
:1021C000A86D40F08050A865A86D00F08050009088
:1021D000FEF7A6FCA96D21F08051A965B0F5007F3E
:1021E00004D0802E07D94FF003040AE0802E08D9CE
:1021F000A02E01D804E001D1022402E0702E00D10B
:1022000001240848016821F00701214301600068AA
:1022100000F00700A04201D00120F8BD0020F8BD69
:102220000010024000200240010901EB810100F092
:102230000F0000EB4100C0B27047002102E00A38F5
:10224000C0B2491C0A28FAD2090740EA1160704757
:1022500070B504460068C168490614D44FF0FF31D8
:10226000C160FEF777F905464FF47A7607E000BFC4
:10227000FEF770F9401BB04201D9032070BD206801
:10228000C0684006F4D5002070BD00000148FFF78B
:10229000F3B90000B8000020704710B5FEF778FAD7
:1022A000BDE81040FFF717BC10B5B8B00A20229067
:1022B0004FF48070259010200121CDE926010220E5
:1022C0002C90CDE92D0108212F910721CDE9301067
:1022D000329022A8FEF716FF00B1FEE70F203390E0
:1022E00000240320CDE934040146369433A8379402
:1022F000FEF7F6FD00B1FEE70F9414941048179412
:1023000000904FF4007468462194FEF711FC00B170
:10231000FEE72046FEF7D2FB00B1FEE7FEF76AFEBD
:102320004FF47A71B0FBF1F0FFF7C1FB0420FFF727
:10233000B1FB00221146501EFEF78EFB38B010BDD7
:10234000420202000D48016841F4700101600C482E
:10235000016841F001010160002181600268094BC0
:102360001A4002608214C260026822F48022026075
:1023700081610249C00380390860704788ED00E040
:1023800000100240FFFFF6EA90F82410C90706D0BB
:1023900001684A68836A22F400321A434A6090F85E
:1023A0002410890706D501684A68C36A22F480327E
:1023B0001A434A6090F82410490706D501684A6814
:1023C000036B22F480221A434A6090F82410090714
:1023D00006D501684A68436B22F400421A434A60FA
:1023E00090F82410C90606D501688A68836B22F428
:1023F00080521A438A6090F82410890606D5016835
:102400008A68C36B22F400521A438A6090F8241041
:10241000490611D501684A68036C22F480121A43F8
:102420004A60016CB1F5801F06D101684A68436CAF
:1024300022F4C0021A434A6090F82410090606D517
:1024400001684A68806C22F4002202434A607047A7
:10245000F8B5002604464667FEF77CF80546206876
:1024600000686FF07E47000708D52B4600224FF426
:1024700000112046009700F069F960B920680068F3
:1024800040070AD52B4600224FF4800120460097D2
:1024900000F05CF908B10320F8BD202084F8710039
:1024A00084F8720084F870600020F8BD2DE9F041D6
:1024B0000446016880682369E6691843636910254A
:1024C000002733431843954A0B68954E3340034326
:1024D0000B6020684168E36821F440511943416072
:1024E0002168A069914201D0236A18438B6823F4C4
:1024F000306303438B608B4B21688B4899420DD12D
:10250000D0F8880010F0030006D001285AD0022825
:1025100056D0032859D157E0012556E0834B994204
:102520000BD1D0F8880010F00C0047D0042849D017
:10253000082845D00C2848D146E07D4B99420BD164
:10254000D0F8880010F0300038D010283AD0202879
:1025500036D0302839D137E0764B99420BD1D0F8BC
:10256000880010F0C00029D040282BD0802827D028
:10257000C0282AD128E0704B99420ED1D0F88800AB
:1025800010F440701AD0B0F5807F1BD0B0F5007FFA
:1025900016D0B0F5407F18D116E0914215D1D0F891
:1025A000880010F4406009D0B0F5806F0AD0B0F513
:1025B000006F05D0B0F5406F07D105E0002504E0BD
:1025C000022502E0042500E008255C4B00264FF4BC
:1025D000004091423DD135B1022D07D0042D07D0E6
:1025E000082D10D107E0FEF70BFD03E0184602E0CE
:1025F000FEF726FDA8B3626802EB4201814202D8D1
:10260000B0EB023F01D9012775E0DFF834815DB1FD
:10261000022D0CD0042D13D0082DF4D1500829051B
:10262000401846F1000105E0FEF7EAFC0AE0500818
:102630004449F5E70023FDF7C7FDA0F5407156E0DA
:10264000FEF7FEFC6268010E030250081818714183
:10265000F0E7E1694FF6EF7881422FD1092DD2D210
:1026600000E048E0DFE805F0060920052305050540
:102670002600C8E7FEF7C4FC01E0FEF7D1FC4100EC
:10268000D4F8040001EB5001B1FBF0F080B2A0F1EE
:1026900010014145B7D84FF6F0710140C0F3420038
:1026A00001432068C16026E027496068EAE7FEF739
:1026B000C7FCE4E74FF480316068E3E7092DA2D25C
:1026C000DFE805F006091E052205050525009AE745
:1026D000FEF796FC01E0FEF7A3FC0146606801EB03
:1026E000500100BFB1FBF0F080B2A0F110014145F4
:1026F00089D82168C860266638466666BDE8F081DC
:10270000606803EB5001EDE7FEF79AFCE5E76168CE
:1027100000EB5100B0FBF1F0E6E700000080004064
:10272000F369FFEF00380140001002400044004010
:1027300000480040004C0040005000400024F400DD
:10274000FFFC0F00000024F40048E8012DE9F041EF
:10275000984617460E460446069D1DE0681C1BD091
:102760002DB1FDF7F7FEA0EB0800A84214D92068B0
:10277000016821F4D07101602068816821F00101B5
:102780008160202084F8710084F87200002084F8B1
:1027900070000320BDE8F0812068C06936EA0000BF
:1027A00004D00020B842D9D00020F3E70120F9E797
:1027B000FEE7FEE7C16909B180690047D0E904215D
:1027C000084610477047000010B5044C8460002490
:1027D000C46001804280838010BD0000C5270008CE
:1027E000704702E008C8121F08C1002AFAD17047DA
:1027F0007047002001E001C1121F002AFBD1704781
:1028000010B50648072106220523FFF7DDFFBDE8C6
:102810001040034A0349FDF71BBD0000980000204B
:10282000000000080D29000810B5002821D0114B28
:102830000022001F196803E0814203D80A46496854
:102840000029F9D152B11368841A9C4204D100685E
:1028500018441060104602E0506000E0186039B182
:1028600002680B1A934203D10B681A44026049684C
:10287000416010BD0C000020FDF792FFFFF714FD32
:10288000FFF7A0F9FFF78CFAFFF738FBFFF704FB1F
:10289000FFF7AEFAFFF728FAFFF760FAFEE700004D
:1028A000F0B50B30154D20F007010024144A0FE05D
:1028B00003688B420BD38B4205D95E1A43184768D5
:1028C000C3E9006700E04368136002C004E0021D32
:1028D00010680028ECD12046002802D1286808B1F1
:1028E0000020F0BD064A07481060074A121A22F07D
:1028F0000702C0E9002401202860D7E7100000206B
:102900000C000020CC010020C8050020FFF768BFA4
:10291000000000000000000001020304060708098F
:10292000A0860100400D0300801A060000350C004F
:1029300040420F0080841E0000093D0000127A0012
:102940000024F40000366E010048E801006CDC024F
:1029500000000000010203047C29000800000020A0
:1029600014000000E227000890290008140000204D
:10297000B40D0000F227000889FEFFFF00093D00AA
:102980000000000000000000000000000000000047
:040000050800018965
:00000001FF
